{
  "_format": "hh-sol-artifact-1",
  "contractName": "Lock",
  "sourceName": "contracts/Lock.sol",
  "abi": [
    {
      "anonymous": false,
      "inputs": [
        {
          "indexed": false,
          "internalType": "address",
          "name": "addr",
          "type": "address"
        },
        {
          "indexed": false,
          "internalType": "string",
          "name": "message",
          "type": "string"
        }
      ],
      "name": "NewWave",
      "type": "event"
    },
    {
      "inputs": [
        {
          "internalType": "string",
          "name": "_msg",
          "type": "string"
        }
      ],
      "name": "newWave",
      "outputs": [],
      "stateMutability": "nonpayable",
      "type": "function"
    },
    {
      "inputs": [],
      "name": "waveCount",
      "outputs": [
        {
          "internalType": "uint256",
          "name": "",
          "type": "uint256"
        }
      ],
      "stateMutability": "view",
      "type": "function"
    },
    {
      "inputs": [],
      "name": "waveList",
      "outputs": [
        {
          "components": [
            {
              "internalType": "address",
              "name": "newWaveAddress",
              "type": "address"
            },
            {
              "internalType": "string",
              "name": "waveMessage",
              "type": "string"
            },
            {
              "internalType": "bool",
              "name": "isWaved",
              "type": "bool"
            }
          ],
          "internalType": "struct Lock.WaveList[]",
          "name": "",
          "type": "tuple[]"
        }
      ],
      "stateMutability": "view",
      "type": "function"
    }
  ],
  "bytecode": "0x60806040526000805534801561001457600080fd5b50610b22806100246000396000f3fe608060405234801561001057600080fd5b50600436106100415760003560e01c80635626aeb91461004657806373b7a2e014610062578063d266919914610080575b600080fd5b610060600480360381019061005b9190610496565b61009e565b005b61006a6101d1565b60405161007791906106cc565b60405180910390f35b610088610333565b6040516100959190610707565b60405180910390f35b60016000808282546100b09190610751565b92505081905550600160405180606001604052803373ffffffffffffffffffffffffffffffffffffffff16815260200183815260200160011515815250908060018154018082558091505060019003906000526020600020906003020160009091909190915060008201518160000160006101000a81548173ffffffffffffffffffffffffffffffffffffffff021916908373ffffffffffffffffffffffffffffffffffffffff16021790555060208201518160010190816101729190610991565b5060408201518160020160006101000a81548160ff02191690831515021790555050507fc8c0ec36e816f76593f2a64d116dc29d017ef338939501f124fa3c5d82de72bb33826040516101c6929190610abc565b60405180910390a150565b60606001805480602002602001604051908101604052809291908181526020016000905b8282101561032a57838290600052602060002090600302016040518060600160405290816000820160009054906101000a900473ffffffffffffffffffffffffffffffffffffffff1673ffffffffffffffffffffffffffffffffffffffff1673ffffffffffffffffffffffffffffffffffffffff16815260200160018201805461027e906107b4565b80601f01602080910402602001604051908101604052809291908181526020018280546102aa906107b4565b80156102f75780601f106102cc576101008083540402835291602001916102f7565b820191906000526020600020905b8154815290600101906020018083116102da57829003601f168201915b505050505081526020016002820160009054906101000a900460ff161515151581525050815260200190600101906101f5565b50505050905090565b60008054905090565b6000604051905090565b600080fd5b600080fd5b600080fd5b600080fd5b6000601f19601f8301169050919050565b7f4e487b7100000000000000000000000000000000000000000000000000000000600052604160045260246000fd5b6103a38261035a565b810181811067ffffffffffffffff821117156103c2576103c161036b565b5b80604052505050565b60006103d561033c565b90506103e1828261039a565b919050565b600067ffffffffffffffff8211156104015761040061036b565b5b61040a8261035a565b9050602081019050919050565b82818337600083830152505050565b6000610439610434846103e6565b6103cb565b90508281526020810184848401111561045557610454610355565b5b610460848285610417565b509392505050565b600082601f83011261047d5761047c610350565b5b813561048d848260208601610426565b91505092915050565b6000602082840312156104ac576104ab610346565b5b600082013567ffffffffffffffff8111156104ca576104c961034b565b5b6104d684828501610468565b91505092915050565b600081519050919050565b600082825260208201905092915050565b6000819050602082019050919050565b600073ffffffffffffffffffffffffffffffffffffffff82169050919050565b60006105368261050b565b9050919050565b6105468161052b565b82525050565b600081519050919050565b600082825260208201905092915050565b60005b8381101561058657808201518184015260208101905061056b565b60008484015250505050565b600061059d8261054c565b6105a78185610557565b93506105b7818560208601610568565b6105c08161035a565b840191505092915050565b60008115159050919050565b6105e0816105cb565b82525050565b60006060830160008301516105fe600086018261053d565b50602083015184820360208601526106168282610592565b915050604083015161062b60408601826105d7565b508091505092915050565b600061064283836105e6565b905092915050565b6000602082019050919050565b6000610662826104df565b61066c81856104ea565b93508360208202850161067e856104fb565b8060005b858110156106ba578484038952815161069b8582610636565b94506106a68361064a565b925060208a01995050600181019050610682565b50829750879550505050505092915050565b600060208201905081810360008301526106e68184610657565b905092915050565b6000819050919050565b610701816106ee565b82525050565b600060208201905061071c60008301846106f8565b92915050565b7f4e487b7100000000000000000000000000000000000000000000000000000000600052601160045260246000fd5b600061075c826106ee565b9150610767836106ee565b925082820190508082111561077f5761077e610722565b5b92915050565b7f4e487b7100000000000000000000000000000000000000000000000000000000600052602260045260246000fd5b600060028204905060018216806107cc57607f821691505b6020821081036107df576107de610785565b5b50919050565b60008190508160005260206000209050919050565b60006020601f8301049050919050565b600082821b905092915050565b6000600883026108477fffffffffffffffffffffffffffffffffffffffffffffffffffffffffffffffff8261080a565b610851868361080a565b95508019841693508086168417925050509392505050565b6000819050919050565b600061088e610889610884846106ee565b610869565b6106ee565b9050919050565b6000819050919050565b6108a883610873565b6108bc6108b482610895565b848454610817565b825550505050565b600090565b6108d16108c4565b6108dc81848461089f565b505050565b5b81811015610900576108f56000826108c9565b6001810190506108e2565b5050565b601f82111561094557610916816107e5565b61091f846107fa565b8101602085101561092e578190505b61094261093a856107fa565b8301826108e1565b50505b505050565b600082821c905092915050565b60006109686000198460080261094a565b1980831691505092915050565b60006109818383610957565b9150826002028217905092915050565b61099a8261054c565b67ffffffffffffffff8111156109b3576109b261036b565b5b6109bd82546107b4565b6109c8828285610904565b600060209050601f8311600181146109fb57600084156109e9578287015190505b6109f38582610975565b865550610a5b565b601f198416610a09866107e5565b60005b82811015610a3157848901518255600182019150602085019450602081019050610a0c565b86831015610a4e5784890151610a4a601f891682610957565b8355505b6001600288020188555050505b505050505050565b610a6c8161052b565b82525050565b600082825260208201905092915050565b6000610a8e8261054c565b610a988185610a72565b9350610aa8818560208601610568565b610ab18161035a565b840191505092915050565b6000604082019050610ad16000830185610a63565b8181036020830152610ae38184610a83565b9050939250505056fea2646970667358221220b3a569025071da74bf6a37ce33aa470143334a751d0fd7c0da4813187fbaf34164736f6c63430008110033",
  "linkReferences": {},
  "deployedLinkReferences": {}
}