{
  "_format": "hh-sol-artifact-1",
  "contractName": "Lock",
  "sourceName": "contracts/Lock.sol",
  "abi": [
    {
      "anonymous": false,
      "inputs": [
        {
          "indexed": false,
          "internalType": "address",
          "name": "addr",
          "type": "address"
        },
        {
          "indexed": false,
          "internalType": "string",
          "name": "message",
          "type": "string"
        }
      ],
      "name": "NewWave",
      "type": "event"
    },
    {
      "inputs": [
        {
          "internalType": "string",
          "name": "_msg",
          "type": "string"
        }
      ],
      "name": "newWave",
      "outputs": [],
      "stateMutability": "nonpayable",
      "type": "function"
    },
    {
      "inputs": [],
      "name": "waveCount",
      "outputs": [
        {
          "internalType": "uint256",
          "name": "",
          "type": "uint256"
        }
      ],
      "stateMutability": "view",
      "type": "function"
    }
  ],
  "bytecode": "0x60806040526000805534801561001457600080fd5b506108c9806100246000396000f3fe608060405234801561001057600080fd5b50600436106100365760003560e01c80635626aeb91461003b578063d266919914610057575b600080fd5b61005560048036038101906100509190610353565b610075565b005b61005f6101f0565b60405161006c91906103b5565b60405180910390f35b60001515600160003373ffffffffffffffffffffffffffffffffffffffff1673ffffffffffffffffffffffffffffffffffffffff16815260200190815260200160002060010160009054906101000a900460ff1615151461010b576040517f08c379a000000000000000000000000000000000000000000000000000000000815260040161010290610453565b60405180910390fd5b600160008082825461011d91906104a2565b92505081905550604051806040016040528082815260200160011515815250600160003373ffffffffffffffffffffffffffffffffffffffff1673ffffffffffffffffffffffffffffffffffffffff168152602001908152602001600020600082015181600001908161019091906106ed565b5060208201518160010160006101000a81548160ff0219169083151502179055509050507fc8c0ec36e816f76593f2a64d116dc29d017ef338939501f124fa3c5d82de72bb33826040516101e5929190610863565b60405180910390a150565b60008054905090565b6000604051905090565b600080fd5b600080fd5b600080fd5b600080fd5b6000601f19601f8301169050919050565b7f4e487b7100000000000000000000000000000000000000000000000000000000600052604160045260246000fd5b61026082610217565b810181811067ffffffffffffffff8211171561027f5761027e610228565b5b80604052505050565b60006102926101f9565b905061029e8282610257565b919050565b600067ffffffffffffffff8211156102be576102bd610228565b5b6102c782610217565b9050602081019050919050565b82818337600083830152505050565b60006102f66102f1846102a3565b610288565b90508281526020810184848401111561031257610311610212565b5b61031d8482856102d4565b509392505050565b600082601f83011261033a5761033961020d565b5b813561034a8482602086016102e3565b91505092915050565b60006020828403121561036957610368610203565b5b600082013567ffffffffffffffff81111561038757610386610208565b5b61039384828501610325565b91505092915050565b6000819050919050565b6103af8161039c565b82525050565b60006020820190506103ca60008301846103a6565b92915050565b600082825260208201905092915050565b7f596f7520776176656420616c72656164792e2e43616e27742077617665206e6f60008201527f77202e2e2e212121210000000000000000000000000000000000000000000000602082015250565b600061043d6029836103d0565b9150610448826103e1565b604082019050919050565b6000602082019050818103600083015261046c81610430565b9050919050565b7f4e487b7100000000000000000000000000000000000000000000000000000000600052601160045260246000fd5b60006104ad8261039c565b91506104b88361039c565b92508282019050808211156104d0576104cf610473565b5b92915050565b600081519050919050565b7f4e487b7100000000000000000000000000000000000000000000000000000000600052602260045260246000fd5b6000600282049050600182168061052857607f821691505b60208210810361053b5761053a6104e1565b5b50919050565b60008190508160005260206000209050919050565b60006020601f8301049050919050565b600082821b905092915050565b6000600883026105a37fffffffffffffffffffffffffffffffffffffffffffffffffffffffffffffffff82610566565b6105ad8683610566565b95508019841693508086168417925050509392505050565b6000819050919050565b60006105ea6105e56105e08461039c565b6105c5565b61039c565b9050919050565b6000819050919050565b610604836105cf565b610618610610826105f1565b848454610573565b825550505050565b600090565b61062d610620565b6106388184846105fb565b505050565b5b8181101561065c57610651600082610625565b60018101905061063e565b5050565b601f8211156106a15761067281610541565b61067b84610556565b8101602085101561068a578190505b61069e61069685610556565b83018261063d565b50505b505050565b600082821c905092915050565b60006106c4600019846008026106a6565b1980831691505092915050565b60006106dd83836106b3565b9150826002028217905092915050565b6106f6826104d6565b67ffffffffffffffff81111561070f5761070e610228565b5b6107198254610510565b610724828285610660565b600060209050601f8311600181146107575760008415610745578287015190505b61074f85826106d1565b8655506107b7565b601f19841661076586610541565b60005b8281101561078d57848901518255600182019150602085019450602081019050610768565b868310156107aa57848901516107a6601f8916826106b3565b8355505b6001600288020188555050505b505050505050565b600073ffffffffffffffffffffffffffffffffffffffff82169050919050565b60006107ea826107bf565b9050919050565b6107fa816107df565b82525050565b60005b8381101561081e578082015181840152602081019050610803565b60008484015250505050565b6000610835826104d6565b61083f81856103d0565b935061084f818560208601610800565b61085881610217565b840191505092915050565b600060408201905061087860008301856107f1565b818103602083015261088a818461082a565b9050939250505056fea2646970667358221220944ef5afd68fb711d501fdc9d11252e2c619f46f05c381d35e66b272e7ce7cee64736f6c63430008110033",
  "linkReferences": {},
  "deployedLinkReferences": {}
}