{
  "_format": "hh-sol-artifact-1",
  "contractName": "Lock",
  "sourceName": "contracts/Lock.sol",
  "abi": [
    {
      "anonymous": false,
      "inputs": [
        {
          "indexed": false,
          "internalType": "address",
          "name": "addr",
          "type": "address"
        },
        {
          "indexed": false,
          "internalType": "string",
          "name": "message",
          "type": "string"
        }
      ],
      "name": "NewWave",
      "type": "event"
    },
    {
      "inputs": [
        {
          "internalType": "string",
          "name": "_msg",
          "type": "string"
        }
      ],
      "name": "newWave",
      "outputs": [],
      "stateMutability": "nonpayable",
      "type": "function"
    },
    {
      "inputs": [],
      "name": "waveCount",
      "outputs": [
        {
          "internalType": "uint256",
          "name": "",
          "type": "uint256"
        }
      ],
      "stateMutability": "view",
      "type": "function"
    }
  ],
  "bytecode": "0x60806040526000805534801561001457600080fd5b506107a1806100246000396000f3fe608060405234801561001057600080fd5b50600436106100365760003560e01c80635626aeb91461003b578063d266919914610057575b600080fd5b610055600480360381019061005091906102bd565b610075565b005b61005f61015a565b60405161006c919061031f565b60405180910390f35b60016000808282546100879190610369565b92505081905550604051806040016040528082815260200160011515815250600260003373ffffffffffffffffffffffffffffffffffffffff1673ffffffffffffffffffffffffffffffffffffffff16815260200190815260200160002060008201518160000190816100fa91906105b4565b5060208201518160010160006101000a81548160ff0219169083151502179055509050507fc8c0ec36e816f76593f2a64d116dc29d017ef338939501f124fa3c5d82de72bb338260405161014f92919061073b565b60405180910390a150565b60008054905090565b6000604051905090565b600080fd5b600080fd5b600080fd5b600080fd5b6000601f19601f8301169050919050565b7f4e487b7100000000000000000000000000000000000000000000000000000000600052604160045260246000fd5b6101ca82610181565b810181811067ffffffffffffffff821117156101e9576101e8610192565b5b80604052505050565b60006101fc610163565b905061020882826101c1565b919050565b600067ffffffffffffffff82111561022857610227610192565b5b61023182610181565b9050602081019050919050565b82818337600083830152505050565b600061026061025b8461020d565b6101f2565b90508281526020810184848401111561027c5761027b61017c565b5b61028784828561023e565b509392505050565b600082601f8301126102a4576102a3610177565b5b81356102b484826020860161024d565b91505092915050565b6000602082840312156102d3576102d261016d565b5b600082013567ffffffffffffffff8111156102f1576102f0610172565b5b6102fd8482850161028f565b91505092915050565b6000819050919050565b61031981610306565b82525050565b60006020820190506103346000830184610310565b92915050565b7f4e487b7100000000000000000000000000000000000000000000000000000000600052601160045260246000fd5b600061037482610306565b915061037f83610306565b92508282019050808211156103975761039661033a565b5b92915050565b600081519050919050565b7f4e487b7100000000000000000000000000000000000000000000000000000000600052602260045260246000fd5b600060028204905060018216806103ef57607f821691505b602082108103610402576104016103a8565b5b50919050565b60008190508160005260206000209050919050565b60006020601f8301049050919050565b600082821b905092915050565b60006008830261046a7fffffffffffffffffffffffffffffffffffffffffffffffffffffffffffffffff8261042d565b610474868361042d565b95508019841693508086168417925050509392505050565b6000819050919050565b60006104b16104ac6104a784610306565b61048c565b610306565b9050919050565b6000819050919050565b6104cb83610496565b6104df6104d7826104b8565b84845461043a565b825550505050565b600090565b6104f46104e7565b6104ff8184846104c2565b505050565b5b81811015610523576105186000826104ec565b600181019050610505565b5050565b601f8211156105685761053981610408565b6105428461041d565b81016020851015610551578190505b61056561055d8561041d565b830182610504565b50505b505050565b600082821c905092915050565b600061058b6000198460080261056d565b1980831691505092915050565b60006105a4838361057a565b9150826002028217905092915050565b6105bd8261039d565b67ffffffffffffffff8111156105d6576105d5610192565b5b6105e082546103d7565b6105eb828285610527565b600060209050601f83116001811461061e576000841561060c578287015190505b6106168582610598565b86555061067e565b601f19841661062c86610408565b60005b828110156106545784890151825560018201915060208501945060208101905061062f565b86831015610671578489015161066d601f89168261057a565b8355505b6001600288020188555050505b505050505050565b600073ffffffffffffffffffffffffffffffffffffffff82169050919050565b60006106b182610686565b9050919050565b6106c1816106a6565b82525050565b600082825260208201905092915050565b60005b838110156106f65780820151818401526020810190506106db565b60008484015250505050565b600061070d8261039d565b61071781856106c7565b93506107278185602086016106d8565b61073081610181565b840191505092915050565b600060408201905061075060008301856106b8565b81810360208301526107628184610702565b9050939250505056fea2646970667358221220d3082eca4f4ffa387d8327ed57fcd477a465e5b7d24e4693efecb14c362f2caa64736f6c63430008110033",
  "linkReferences": {},
  "deployedLinkReferences": {}
}